{
  "contractName": "SavingsVault",
  "abi": [
    {
      "inputs": [
        {
          "internalType": "uint256",
          "name": "_interestRate",
          "type": "uint256"
        }
      ],
      "stateMutability": "nonpayable",
      "type": "constructor"
    },
    {
      "anonymous": false,
      "inputs": [
        {
          "indexed": true,
          "internalType": "address",
          "name": "user",
          "type": "address"
        },
        {
          "indexed": false,
          "internalType": "uint256",
          "name": "amount",
          "type": "uint256"
        }
      ],
      "name": "Deposit",
      "type": "event"
    },
    {
      "anonymous": false,
      "inputs": [
        {
          "indexed": true,
          "internalType": "address",
          "name": "user",
          "type": "address"
        },
        {
          "indexed": false,
          "internalType": "uint256",
          "name": "interest",
          "type": "uint256"
        }
      ],
      "name": "InterestAccumulated",
      "type": "event"
    },
    {
      "anonymous": false,
      "inputs": [
        {
          "indexed": true,
          "internalType": "address",
          "name": "user",
          "type": "address"
        },
        {
          "indexed": false,
          "internalType": "uint256",
          "name": "amount",
          "type": "uint256"
        }
      ],
      "name": "Withdraw",
      "type": "event"
    },
    {
      "inputs": [],
      "name": "interestInterval",
      "outputs": [
        {
          "internalType": "uint256",
          "name": "",
          "type": "uint256"
        }
      ],
      "stateMutability": "view",
      "type": "function",
      "constant": true
    },
    {
      "inputs": [],
      "name": "interestRate",
      "outputs": [
        {
          "internalType": "uint256",
          "name": "",
          "type": "uint256"
        }
      ],
      "stateMutability": "view",
      "type": "function",
      "constant": true
    },
    {
      "inputs": [],
      "name": "deposit",
      "outputs": [],
      "stateMutability": "payable",
      "type": "function",
      "payable": true
    },
    {
      "inputs": [
        {
          "internalType": "uint256",
          "name": "amount",
          "type": "uint256"
        }
      ],
      "name": "withdraw",
      "outputs": [],
      "stateMutability": "nonpayable",
      "type": "function"
    },
    {
      "inputs": [],
      "name": "getBalance",
      "outputs": [
        {
          "internalType": "uint256",
          "name": "",
          "type": "uint256"
        }
      ],
      "stateMutability": "view",
      "type": "function",
      "constant": true
    }
  ],
  "bytecode": "0x60806040526301e1338060025534801561001857600080fd5b50604051610ccd380380610ccd833981810160405281019061003a919061005c565b80600181905550506100a6565b6000815190506100568161008f565b92915050565b60006020828403121561006e57600080fd5b600061007c84828501610047565b91505092915050565b6000819050919050565b61009881610085565b81146100a357600080fd5b50565b610c18806100b56000396000f3fe60806040526004361061004a5760003560e01c80630e35dc571461004f57806312065fe01461007a5780632e1a7d4d146100a55780637c3a00fd146100ce578063d0e30db0146100f9575b600080fd5b34801561005b57600080fd5b50610064610103565b6040516100719190610a22565b60405180910390f35b34801561008657600080fd5b5061008f610109565b60405161009c9190610a22565b60405180910390f35b3480156100b157600080fd5b506100cc60048036038101906100c79190610904565b610226565b005b3480156100da57600080fd5b506100e36105a9565b6040516100f09190610a22565b60405180910390f35b6101016105af565b005b60025481565b6000806000803373ffffffffffffffffffffffffffffffffffffffff1673ffffffffffffffffffffffffffffffffffffffff16815260200190815260200160002060010154426101599190610b2f565b90506000606460025461016c9190610ad5565b826001546000803373ffffffffffffffffffffffffffffffffffffffff1673ffffffffffffffffffffffffffffffffffffffff168152602001908152602001600020600001546101bc9190610ad5565b6101c69190610ad5565b6101d09190610aa4565b9050806000803373ffffffffffffffffffffffffffffffffffffffff1673ffffffffffffffffffffffffffffffffffffffff1681526020019081526020016000206000015461021f9190610a4e565b9250505090565b3360008060008373ffffffffffffffffffffffffffffffffffffffff1673ffffffffffffffffffffffffffffffffffffffff16815260200190815260200160002060010154426102769190610b2f565b90506000811180156102c9575060008060008473ffffffffffffffffffffffffffffffffffffffff1673ffffffffffffffffffffffffffffffffffffffff16815260200190815260200160002060000154115b1561043357600060646002546102df9190610ad5565b826001546000808773ffffffffffffffffffffffffffffffffffffffff1673ffffffffffffffffffffffffffffffffffffffff1681526020019081526020016000206000015461032f9190610ad5565b6103399190610ad5565b6103439190610aa4565b9050806000808573ffffffffffffffffffffffffffffffffffffffff1673ffffffffffffffffffffffffffffffffffffffff16815260200190815260200160002060000160008282546103969190610a4e565b92505081905550426000808573ffffffffffffffffffffffffffffffffffffffff1673ffffffffffffffffffffffffffffffffffffffff168152602001908152602001600020600101819055508273ffffffffffffffffffffffffffffffffffffffff167fc2c200990ee1c68055e059ad867ef209e2bb106d48a7d934005e8d01cd307241826040516104299190610a22565b60405180910390a2505b6000803373ffffffffffffffffffffffffffffffffffffffff1673ffffffffffffffffffffffffffffffffffffffff168152602001908152602001600020600001548311156104b7576040517f08c379a00000000000000000000000000000000000000000000000000000000081526004016104ae906109e2565b60405180910390fd5b826000803373ffffffffffffffffffffffffffffffffffffffff1673ffffffffffffffffffffffffffffffffffffffff16815260200190815260200160002060000160008282546105089190610b2f565b925050819055503373ffffffffffffffffffffffffffffffffffffffff166108fc849081150290604051600060405180830381858888f19350505050158015610555573d6000803e3d6000fd5b503373ffffffffffffffffffffffffffffffffffffffff167f884edad9ce6fa2440d8a54cc123490eb96d2768479d49ff9c7366125a94243648460405161059c9190610a22565b60405180910390a2505050565b60015481565b3360008060008373ffffffffffffffffffffffffffffffffffffffff1673ffffffffffffffffffffffffffffffffffffffff16815260200190815260200160002060010154426105ff9190610b2f565b9050600081118015610652575060008060008473ffffffffffffffffffffffffffffffffffffffff1673ffffffffffffffffffffffffffffffffffffffff16815260200190815260200160002060000154115b156107bc57600060646002546106689190610ad5565b826001546000808773ffffffffffffffffffffffffffffffffffffffff1673ffffffffffffffffffffffffffffffffffffffff168152602001908152602001600020600001546106b89190610ad5565b6106c29190610ad5565b6106cc9190610aa4565b9050806000808573ffffffffffffffffffffffffffffffffffffffff1673ffffffffffffffffffffffffffffffffffffffff168152602001908152602001600020600001600082825461071f9190610a4e565b92505081905550426000808573ffffffffffffffffffffffffffffffffffffffff1673ffffffffffffffffffffffffffffffffffffffff168152602001908152602001600020600101819055508273ffffffffffffffffffffffffffffffffffffffff167fc2c200990ee1c68055e059ad867ef209e2bb106d48a7d934005e8d01cd307241826040516107b29190610a22565b60405180910390a2505b600034116107ff576040517f08c379a00000000000000000000000000000000000000000000000000000000081526004016107f690610a02565b60405180910390fd5b346000803373ffffffffffffffffffffffffffffffffffffffff1673ffffffffffffffffffffffffffffffffffffffff16815260200190815260200160002060000160008282546108509190610a4e565b92505081905550426000803373ffffffffffffffffffffffffffffffffffffffff1673ffffffffffffffffffffffffffffffffffffffff168152602001908152602001600020600101819055503373ffffffffffffffffffffffffffffffffffffffff167fe1fffcc4923d04b559f4d29a8bfc6cda04eb5b0d3c460751c2402c5c5cc9109c346040516108e39190610a22565b60405180910390a25050565b6000813590506108fe81610bcb565b92915050565b60006020828403121561091657600080fd5b6000610924848285016108ef565b91505092915050565b600061093a601483610a3d565b91507f496e73756666696369656e742062616c616e63650000000000000000000000006000830152602082019050919050565b600061097a602883610a3d565b91507f4465706f73697420616d6f756e74206d7573742062652067726561746572207460008301527f68616e207a65726f0000000000000000000000000000000000000000000000006020830152604082019050919050565b6109dc81610b63565b82525050565b600060208201905081810360008301526109fb8161092d565b9050919050565b60006020820190508181036000830152610a1b8161096d565b9050919050565b6000602082019050610a3760008301846109d3565b92915050565b600082825260208201905092915050565b6000610a5982610b63565b9150610a6483610b63565b9250827fffffffffffffffffffffffffffffffffffffffffffffffffffffffffffffffff03821115610a9957610a98610b6d565b5b828201905092915050565b6000610aaf82610b63565b9150610aba83610b63565b925082610aca57610ac9610b9c565b5b828204905092915050565b6000610ae082610b63565b9150610aeb83610b63565b9250817fffffffffffffffffffffffffffffffffffffffffffffffffffffffffffffffff0483118215151615610b2457610b23610b6d565b5b828202905092915050565b6000610b3a82610b63565b9150610b4583610b63565b925082821015610b5857610b57610b6d565b5b828203905092915050565b6000819050919050565b7f4e487b7100000000000000000000000000000000000000000000000000000000600052601160045260246000fd5b7f4e487b7100000000000000000000000000000000000000000000000000000000600052601260045260246000fd5b610bd481610b63565b8114610bdf57600080fd5b5056fea264697066735822122045422217b9d045edaf34c0757979fec968b7355f46ec6a7ddc255d9fabaa018964736f6c63430008000033",
  "immutableReferences": {},
  "source": "// SPDX-License-Identifier: MIT\r\npragma solidity ^0.8.0;\r\n\r\ncontract SavingsVault {\r\n    struct Account {\r\n        uint256 balance;\r\n        uint256 lastInterestTimestamp;\r\n    }\r\n\r\n    mapping(address => Account) private accounts;\r\n    uint256 public interestRate; // Taux d'intrt annuel en pourcentage (e.g., 5 pour 5%)\r\n    uint256 public interestInterval = 365 days; // Priode pour un taux dintrt annuel (1 an en secondes)\r\n\r\n    event Deposit(address indexed user, uint256 amount);\r\n    event Withdraw(address indexed user, uint256 amount);\r\n    event InterestAccumulated(address indexed user, uint256 interest);\r\n\r\n    constructor(uint256 _interestRate) {\r\n        interestRate = _interestRate;\r\n    }\r\n\r\n    // Mise  jour des intrts pour un utilisateur\r\n    modifier updateInterest(address user) {\r\n        uint256 elapsed = block.timestamp - accounts[user].lastInterestTimestamp;\r\n        if (elapsed > 0 && accounts[user].balance > 0) {\r\n            uint256 interest = (accounts[user].balance * interestRate * elapsed) / (interestInterval * 100);\r\n            accounts[user].balance += interest;\r\n            accounts[user].lastInterestTimestamp = block.timestamp;\r\n            emit InterestAccumulated(user, interest);\r\n        }\r\n        _;\r\n    }\r\n\r\n    // Fonction de dpt avec mise  jour des intrts\r\n    function deposit() external payable updateInterest(msg.sender) {\r\n        require(msg.value > 0, \"Deposit amount must be greater than zero\");\r\n        accounts[msg.sender].balance += msg.value;\r\n        accounts[msg.sender].lastInterestTimestamp = block.timestamp;\r\n        emit Deposit(msg.sender, msg.value);\r\n    }\r\n\r\n    // Fonction de retrait avec mise  jour des intrts\r\n    function withdraw(uint256 amount) external updateInterest(msg.sender) {\r\n        require(amount <= accounts[msg.sender].balance, \"Insufficient balance\");\r\n        accounts[msg.sender].balance -= amount;\r\n        payable(msg.sender).transfer(amount);\r\n        emit Withdraw(msg.sender, amount);\r\n    }\r\n\r\n    // Fonction pour obtenir le solde, incluant les intrts accumuls\r\n    function getBalance() external view returns (uint256) {\r\n        uint256 elapsed = block.timestamp - accounts[msg.sender].lastInterestTimestamp;\r\n        uint256 interest = (accounts[msg.sender].balance * interestRate * elapsed) / (interestInterval * 100);\r\n        return accounts[msg.sender].balance + interest;\r\n    }\r\n}\r\n",
  "sourcePath": "C:\\Users\\adnan\\OneDrive\\Desktop\\ProjectSaving\\contracts\\SavingsVault.sol",
  "compiler": {
    "name": "solc",
    "version": "0.8.0+commit.c7dfd78e.Emscripten.clang"
  },
  "schemaVersion": "3.4.16",
  "updatedAt": "2024-11-05T10:35:32.608Z",
  "networkType": "ethereum",
  "devdoc": {
    "kind": "dev",
    "methods": {},
    "version": 1
  },
  "userdoc": {
    "kind": "user",
    "methods": {},
    "version": 1
  }
}